{
  "_format": "hh-sol-artifact-1",
  "contractName": "InventoryTracker",
  "sourceName": "contracts/InventoryTracker.sol",
  "abi": [
    {
      "inputs": [],
      "stateMutability": "nonpayable",
      "type": "constructor"
    },
    {
      "anonymous": false,
      "inputs": [
        {
          "indexed": true,
          "internalType": "address",
          "name": "shopkeeper",
          "type": "address"
        },
        {
          "indexed": false,
          "internalType": "uint256",
          "name": "timestamp",
          "type": "uint256"
        }
      ],
      "name": "QueryRecorded",
      "type": "event"
    },
    {
      "inputs": [],
      "name": "owner",
      "outputs": [
        {
          "internalType": "address",
          "name": "",
          "type": "address"
        }
      ],
      "stateMutability": "view",
      "type": "function"
    },
    {
      "inputs": [
        {
          "internalType": "address",
          "name": "shopkeeper",
          "type": "address"
        }
      ],
      "name": "recordQuery",
      "outputs": [],
      "stateMutability": "nonpayable",
      "type": "function"
    }
  ],
  "bytecode": "0x608060405234801561001057600080fd5b50336000806101000a81548173ffffffffffffffffffffffffffffffffffffffff021916908373ffffffffffffffffffffffffffffffffffffffff16021790555061020e806100606000396000f3fe608060405234801561001057600080fd5b50600436106100365760003560e01c80638da5cb5b1461003b578063bd48700b14610059575b600080fd5b610043610075565b604051610050919061012b565b60405180910390f35b610073600480360381019061006e9190610177565b610099565b005b60008054906101000a900473ffffffffffffffffffffffffffffffffffffffff1681565b8073ffffffffffffffffffffffffffffffffffffffff167f45ba3854babe739468207e8b71b00aae7249258a130bac236e527bc1b1d3fdbc426040516100df91906101bd565b60405180910390a250565b600073ffffffffffffffffffffffffffffffffffffffff82169050919050565b6000610115826100ea565b9050919050565b6101258161010a565b82525050565b6000602082019050610140600083018461011c565b92915050565b600080fd5b6101548161010a565b811461015f57600080fd5b50565b6000813590506101718161014b565b92915050565b60006020828403121561018d5761018c610146565b5b600061019b84828501610162565b91505092915050565b6000819050919050565b6101b7816101a4565b82525050565b60006020820190506101d260008301846101ae565b9291505056fea26469706673582212204be955114b6f4f30344464c2e10127b74446971ad29b67fdb78fd1fc1690c6b864736f6c63430008130033",
  "linkReferences": {},
  "deployedLinkReferences": {}
}